:060000000A128A11132A06
:10000800F000030EF1000B1995220B185A22710EFD
:080018008300F00E700E0900D8
:100400008A018A1482073F3406345B344F346634E1
:100410006D347D3407347F346F3477347C34393431
:100420005E347934713419223A2241224E227422E8
:10043000172A0317831688018901031383160614EC
:10044000861487018501081088100811031383168C
:100450008113031383161514951403138312850156
:100460008701081088100811F801F701F601FA0158
:10047000F9010800031383160F140F178F160F12BC
:1004800008000313831681128111011581140114D0
:1004900003138312D93081000B1108000313831258
:1004A0008B178B158B160B100B1103138316161459
:1004B0009614080003138312061C6E22861C7122F8
:1004C0007A08F900F601F701F80189226430F9078A
:1004D00080220A30F90792220B100800850AFA0AD6
:1004E00008008503FA03080003138312770800222B
:1004F000F20076080022F30078080022F4000800D9
:100500000A307902F90003138312031C0800F70A6A
:10051000802A64307902F90003138312031C080057
:10052000F60A892A7908F800080003138312D930E3
:1005300081000B11031383128801F518AF2AA02A3A
:100540007518A92AA32A7208870088147514F51053
:1005500008007308870008147510F5140800740863
:0A056000870008157510F51008005B
:04400E00C430FF3F7C
:00000001FF
